:100000000C9463000C948B000C948B000C948B006C
:100010000C948B000C948B000C948B000C948B0034
:100020000C948B000C948B000C948B000C94AB08FC
:100030000C948B000C948B000C948B000C948B0014
:100040000C9409080C948B000C9479080C945308B8
:100050000C948B000C948B000C948B000C948B00F4
:100060000C9467090C948B0000000000240027000A
:100070002A0000000000250028002B0000000000DE
:1000800023002600290004040404040404040202DA
:100090000202020203030303030301020408102007
:1000A0004080010204081020010204081020000012
:1000B0000008000201000003040700000000000027
:1000C0000000860A1C1011241FBECFEFD8E0DEBF4F
:1000D000CDBF12E0A0E0B1E0E0E4F6E202C005909E
:1000E0000D92A031B107D9F724E0A0E1B2E001C040
:1000F0001D92AF34B207E1F710E0C2E6D0E004C0D1
:100100002197FE010E941211C136D107C9F70E9442
:10011000910B0C9413130C94000096E0899FD0016E
:100120001124A055BC4F90967C936E935F9791E0FD
:1001300091969C939197E0911D04F0911E049091EB
:100140001C04992339F0309751F0811108C0809137
:10015000CC030994309719F05C968C91FACF0895EE
:10016000833081F028F4813099F08230A9F008952D
:100170008730A9F08830C9F08430B1F480918000D4
:100180008F7D03C0809180008F77809380000895D9
:1001900084B58F7784BD089584B58F7DFBCF809122
:1001A000B0008F778093B00008958091B0008F7D6C
:1001B000F9CFCF93DF93282F30E0F901E255FF4FBD
:1001C0008491F901E656FF4FD491F901EA57FF4FA8
:1001D000C491CC23A1F081110E94B000EC2FF0E07B
:1001E000EE0FFF1FE458FF4FA591B491EC91ED2362
:1001F00081E090E009F480E0DF91CF91089580E004
:1002000090E0FACF1F93CF93DF93282F30E0F901CE
:10021000E255FF4F8491F901E656FF4FD491F90161
:10022000EA57FF4FC491CC23A9F0162F81110E94E9
:10023000B000EC2FF0E0EE0FFF1FEE58FF4FA5913E
:10024000B4918FB7F894EC91111108C0D095DE23CA
:10025000DC938FBFDF91CF911F910895DE2BF8CFF4
:10026000CF93DF9390E0FC01E656FF4F24918A572D
:100270009F4FFC0184918823C9F090E0880F991F5B
:10028000FC01E859FF4FA591B491FC01EE58FF4FD6
:10029000C591D49161110DC09FB7F8948C912095B0
:1002A00082238C938881282328839FBFDF91CF915D
:1002B0000895623051F49FB7F8943C91822F809555
:1002C00083238C93E8812E2BEFCF8FB7F894EC919A
:1002D0002E2B2C938FBFEACF3FB7F89480918E02DC
:1002E00090918F02A0919002B091910226B5A89BA7
:1002F00005C02F3F19F00196A11DB11D3FBFBA2FB8
:10030000A92F982F8827BC01CD01620F711D811D77
:10031000911D42E0660F771F881F991F4A95D1F7FC
:1003200008958F929F92AF92BF92CF92DF92EF92F9
:10033000FF924B015C010E946C016B017C010E94E9
:100340006C016C197D098E099F09683E7340810517
:100350009105A8F321E0821A9108A108B10888EE5E
:10036000C80E83E0D81EE11CF11C81149104A10485
:10037000B10429F7FF90EF90DF90CF90BF90AF903E
:100380009F908F9008952FB7F89460918A02709192
:100390008B0280918C0290918D022FBF08950F9354
:1003A0001F93CF93DF93C82FD62F86E0C89FF0010D
:1003B0001124E055FC4F11A2878D90A18130910549
:1003C000F1F058F082309105F1F1039709F440C043
:1003D000DF91CF911F910F9108956623C9F361E0DA
:1003E00070E08C2F0E948D000E94C301609308046E
:1003F0007093090480930A0490930B04E9CF0E9440
:10040000C301009108041091090420910A0430915D
:100410000B04AB01BC01401B510B620B730B8091B1
:100420001A0490911B04B0E0A0E084179507A6077A
:10043000B70748F462E070E08C2FDF91CF911F91F5
:100440000F910C948D0063E070E0D111C1CFF4CF17
:1004500070E060E0F1CF862F642F0C943001862F7E
:10046000642F0C940201862F0C94D90008950895EE
:10047000AF92BF92CF92DF92EF92FF920F931F93B2
:10048000CF93DF936C017B018B01040F151FEB01F0
:100490005E01AE18BF08C017D10759F06991D601A7
:1004A000ED91FC910190F081E02DC6010995892B19
:1004B00079F7C501DF91CF911F910F91FF90EF90D8
:1004C000DF90CF90BF90AF900895FC01538D448D85
:1004D000252F30E0842F90E0821B930B541710F0EF
:1004E000CF96089501970895FC01918D828D9817FC
:1004F00061F0A28DAE0FBF2FB11D5D968C91928DD4
:100500009F5F9F73928F90E008958FEF9FEF089504
:100510000F931F930E94C3016093EA027093EB0252
:100520008093EC029093ED0282EE92E00E947402BE
:1005300097FF1DC00E94C3010091EA021091EB02D7
:100540002091EC023091ED02601B710B820B930B3A
:100550000091E6021091E7022091E8023091E90251
:100560006017710782079307F8F28FEF9FEF1F91D3
:100570000F910895FC01918D828D981731F0828D35
:10058000E80FF11D858D90E008958FEF9FEF08959E
:10059000FC01918D228D892F90E0805C9F4F821B02
:1005A00091098F739927089582EE92E00E94C80204
:1005B00021E0892B09F420E0822F089580E090E06B
:1005C000892B29F00E94D40281110C940000089517
:1005D000FC01A48DA80FB92FB11DA35ABF4F2C91B8
:1005E000848D90E001968F739927848FA689B789AF
:1005F0002C93A089B1898C91837080648C93938DA6
:10060000848D981306C00288F389E02D80818F7D48
:1006100080830895EF92FF920F931F93CF93DF9300
:10062000EC0181E0888F9B8D8C8D98131AC0E8892E
:10063000F989808185FF15C09FB7F894EE89FF89FD
:100640006083E889F98980818370806480839FBF9B
:1006500081E090E0DF91CF911F910F91FF90EF909B
:100660000895F62E0B8D10E00F5F1F4F0F731127AB
:10067000E02E8C8D8E110CC00FB607FCFACFE889E6
:10068000F989808185FFF5CFCE010E94E802F1CF84
:10069000EB8DEC0FFD2FF11DE35AFF4FF0829FB75A
:1006A000F8940B8FEA89FB8980818062CFCFCF934A
:1006B000DF93EC01888D8823B9F0AA89BB89E8898A
:1006C000F9898C9185FD03C0808186FD0DC00FB630
:1006D00007FCF7CF8C9185FFF2CF808185FFEDCFAE
:1006E000CE010E94E802E9CFDF91CF9108950895ED
:1006F000CF92DF92EF92FF92CF93DF93EC016032C3
:1007000082E07807CCF5653B710514F064EB70E08E
:10071000898128E830E0281B310987FD3395220FB5
:10072000331F220F331F6901330FEE08FF088A8140
:1007300028E532E0281B310987FD3395220F331F4E
:10074000220F331F032E000C440B550B2C193D09AF
:100750004E095F09DB0177FF02C0B0E0A0E00E9414
:10076000961024EB30E040E050E00E946C10C20E86
:10077000D31EE41EF51EB601E881EC3070F5298128
:1007800088E890E0821B910927FD9395880F991FB7
:10079000880F991F681779077CF02A8188E592E015
:1007A000821B910927FD9395880F991F880F991F28
:1007B000681779070CF4CB010297880F991F4FB780
:1007C000F8942E2F30E0F901EE0FFF1FE20FF31F18
:1007D000E557FC4F928381834FBFDF91CF91FF900C
:1007E000EF90DF90CF9008951F93CF93DF93EC01AC
:1007F000162F88818C3008F04EC061E0812F0E9456
:1008000030018881282F30E0F901EE0FFF1FE20F41
:10081000F31FE557FC4F1F736081607C612B608381
:1008200019821A822CE0622F0E940611829FB00169
:10083000112430E020E0AB01420F531FFA01EE0F0C
:10084000FF1FE40FF51FE557FC4F908196FD16C082
:100850002F5F3F4F2C30310571F781110FC010927F
:10086000800082E0809381001092850010928400C5
:10087000B19A80916F00826080936F00E8818E2F23
:1008800090E0FC01EE0FFF1FE80FF91FE557FC4F4A
:100890008081806480838881DF91CF911F9108954A
:1008A00020915102260F3327331F21323105ECF4FA
:1008B0002091B802FC0190E080E0243069F082E0F1
:1008C0000895A09151022191AC014F5C5D4FA40F9E
:1008D000B52FB11D2C930196861798F38091510284
:1008E000680F6093510280E0089581E008951092AE
:1008F000B80281E08093B7021092920261E082E137
:100900000E94020161E083E10E940201E9EBF0E054
:1009100080818E7F808380818D7F808388E4809337
:10092000B80085E48093BC000895CF93DF9391E0F5
:10093000909330028823B9F0C091B800D091BA00EA
:100940008091BC008A7B8093BC0060E082E10E94C1
:10095000020160E083E10E9402010E947704D093CB
:10096000BA00C093B800DF91CF910895CF92DF9283
:10097000EF92FF920F931F93CF93DF93D091E102F9
:1009800081E0D13208F09CC0C091E0020E946C016D
:100990006B017C018091B80281116CC082E0809370
:1009A000B80281E08093B7028FEF8093B602109275
:1009B000B502D093B402A0ECB2E0E4E9F2E080E04A
:1009C000D8138DC01092930280919302CC0FC82B44
:1009D000C093930280919202813009F084C01092FA
:1009E00092020E946C016B017C01809193028093C2
:1009F000BB008091BA029091BB02A091BC02B09161
:100A0000BD02892B8A2B8B2BA1F00E946C010091D7
:100A1000BA021091BB022091BC023091BD026C1948
:100A20007D098E099F09061717072807390708F45B
:100A300042C08091BC0083FDD8CF85EC8093BC0080
:100A40000E946C016B017C018091B802823009F434
:100A50004CC08091B6028F3F09F469C08091B60204
:100A6000803209F466C08091B602803309F463C015
:100A700084E026C08091BA029091BB02A091BC0292
:100A8000B091BD02892B8A2B8B2B09F483CF0E9456
:100A90006C010091BA021091BB022091BC0230910E
:100AA000BD026C197D098E099F09061717072807D3
:100AB000390708F06FCF8091B9020E94950485E054
:100AC0001092BF021092E1021092BE02DF91CF910C
:100AD0001F910F91FF90EF90DF90CF9008959D911F
:100AE00091938F5F6DCF85EEA9CF8091BA029091DF
:100AF000BB02A091BC02B091BD02892B8A2B8B2B2B
:100B000009F4A2CF0E946C010091BA021091BB02BD
:100B10002091BC023091BD026C197D098E099F099C
:100B2000061717072807390708F08ECFC4CF80E0D3
:100B3000C7CF82E0C5CF83E0C3CF0895E0917A02AA
:100B400080917902E81730F4F0E0E05FFD4F80819A
:100B500090E008958FEF9FEF089590917A02809131
:100B600079022FEF3FEF981748F4E92FF0E0E05FAC
:100B7000FD4F208130E09F5F90937A02C901089574
:100B80008091790290917A02891B990B0895CF92F6
:100B9000DF92EF92FF920F931F93CF93DF937C012D
:100BA000CB018A012091BE02222389F0EB016B0167
:100BB000C40ED51ECC15DD0569F06991D701ED9104
:100BC000FC910190F081E02DC7010995F3CF642FCE
:100BD0000E945004C801DF91CF911F910F91FF90A7
:100BE000EF90DF90CF900895CF93DF931F92CDB712
:100BF000DEB769832091BE022223F9F02091E10241
:100C0000203258F021E030E0FC013383228390E071
:100C100080E00F90DF91CF9108958091BF02E82F7F
:100C2000F0E0E054FD4F998190838F5F8093BF0285
:100C30008093E10281E090E0ECCF61E0CE0101968B
:100C40000E945004F7CFFC01248131E03093BE02B2
:100C50002093E0021092BF021092E1028485682B7B
:100C60008FE793E00E94F4050C94B60490E080E0D6
:100C7000089591E09093BE0290E79093E002109265
:100C8000BF021092E10261E070E001C0660F8A9538
:100C9000EAF78FE793E00E94F4050C94B6040F93F3
:100CA0001F93CF938C01C62F0E9423066C2F646084
:100CB000C8010E9423066C2F6B7FC8010E94230687
:100CC00083EC90E00197F1F7CF911F910F91089578
:100CD0000F931F93CF93DF938C01D62FC42F607F88
:100CE000642B0E944F0680E1D89FB00111246C2B29
:100CF000C801DF91CF911F910F910C944F0640E0F6
:100D000060E80C946806CF93DF93EC0140E061E06B
:100D10000E9468068BE39FE10197F1F7898588239C
:100D200029F0CE01DF91CF910C947F06DF91CF9116
:100D30000895CF93DF93EC0181E00E9439068FE1A3
:100D400094E00E9483068FE194E00E947F064C812C
:100D50005D81688179818FE194E0DF91CF910C947E
:100D6000380241E00E94680681E090E008950F9308
:100D70001F93CF93DF93EC0110927A0210927902C5
:100D80001092BF021092E1020E94770486E392E083
:100D9000909378028093770287E392E090937602B3
:100DA000809375021D828B85823010F098E09D83C0
:100DB000888762E370E080E090E00E9491016C859A
:100DC000CE010E94230668EE73E080E090E00E946E
:100DD000910160E3CE010E944F060BE416E4C801C6
:100DE0000197F1F760E3CE010E944F06C801019719
:100DF000F1F760E3CE010E944F0683E592E0019790
:100E0000F1F760E2CE010E944F066D81606240E022
:100E1000CE010E94680684E08E8340E06CE0CE0143
:100E20000E946806CE010E94830682E08F8340E024
:100E300066E0CE010E94680640E062E0CE010E94BA
:100E400068068BE39FE10197F1F7DF91CF911F9146
:100E50000F910895FC0180819181009711F00C940D
:100E6000B4110895FB0101900020E9F73197AF011B
:100E7000461B570BDC01ED91FC910280F381E02DC4
:100E800009940F931F93CF93DF93EC01888199818D
:100E9000009759F02A813B812617370730F081E00F
:100EA000DF91CF911F910F9108958B016F5F7F4F5D
:100EB0000E943D12009759F0998388831B830A830F
:100EC0002C813D81232B59F7FC011082E8CF80E073
:100ED000E7CFEF92FF920F931F93CF93DF936115AC
:100EE000710541F480E0DF91CF911F910F91FF9048
:100EF000EF90089541155105B1F07B01EC010C8193
:100F00001D81040F151FB8010E944107882351F36A
:100F1000288139818C819D81B701820F931F0E94A6
:100F20000C131D830C8381E0DECFEF92FF920F93B1
:100F30001F93CF93DF93EC017B018A01BA010E94DA
:100F4000410728813981811114C02115310519F01B
:100F5000C9010E94B411198218821D821C821B8251
:100F60001A82CE01DF91CF911F910F91FF90EF90E8
:100F700008951D830C83B701C9010E940C13F1CFA2
:100F8000FC01118210821382128215821482FB01ED
:100F900001900020E9F73197AF01461B570B0C94E5
:100FA000950785ED8093BC008091BA029091BB02B9
:100FB000A091BC02B091BD020796A11DB11D23E016
:100FC000B695A795979587952A95D1F72091BC005E
:100FD00024FD03C01092B80208954091BA025091C6
:100FE000BB026091BC027091BD02452B462B472B82
:100FF00069F30097A105B10541F02AE22A95F1F7BE
:1010000000C00197A109B109E1CF8091B9020C9408
:1010100095041F920F920FB60F9211242F933F93B6
:101020008F939F93AF93BF9380918A0290918B028D
:10103000A0918C02B0918D023091890223E0230FA0
:101040002D3758F50196A11DB11D2093890280937B
:101050008A0290938B02A0938C02B0938D028091B0
:101060008E0290918F02A0919002B0919102019610
:10107000A11DB11D80938E0290938F02A0939002C8
:10108000B0939102BF91AF919F918F913F912F911A
:101090000F900FBE0F901F90189526E8230F029611
:1010A000A11DB11DD2CF1F920F920FB60F92112426
:1010B0002F933F934F935F936F937F938F939F9360
:1010C000AF93BF93EF93FF9382EE92E00E94E8020A
:1010D000FF91EF91BF91AF919F918F917F916F9110
:1010E0005F914F913F912F910F900FBE0F901F90E6
:1010F00018951F920F920FB60F9211242F938F9372
:101100009F93EF93FF93E091F202F091F3028081BD
:10111000E091F802F091F90282FD1BC0908180916C
:10112000FB028F5F8F732091FC02821741F0E091E8
:10113000FB02F0E0EE51FD4F958F8093FB02FF9193
:10114000EF919F918F912F910F900FBE0F901F9055
:1011500018958081F4CF1F920F920FB60F92112431
:101160002F933F934F935F936F937F938F939F93AF
:10117000AF93BF93CF93DF93EF93FF93809174026C
:10118000C091AF03D0E087FF24C010928500109279
:101190008400809174028F5F809374028091740246
:1011A000082E000C990B8C179D0724F48091740273
:1011B0008C30C4F180918400909185000496803435
:1011C0009C4908F47AC0809184009091850004962F
:1011D00076C080917402082E000C990B8C179D0725
:1011E000C4F6E09174028E2FEE0F990BFC01EE0F06
:1011F000FF1FE80FF91FE557FC4F808186FFC9CF1D
:10120000E09174028E2FEE0F990BFC01EE0FFF1F81
:10121000E80FF91FE557FC4F808160E08F730E9453
:101220000201B7CF2091840030918500E0917402D3
:101230008E2FEE0F990BFC01EE0FFF1FE80FF91F29
:10124000E557FC4F81819281820F931F9093890013
:1012500080938800E09174028E2FEE0F990BFC01B1
:10126000EE0FFF1FE80FF91FE557FC4F808186FF47
:1012700011C0E09174028E2FEE0F990BFC01EE0F5E
:10128000FF1FE80FF91FE557FC4F808161E08F7366
:101290000E940201FF91EF91DF91CF91BF91AF9139
:1012A0009F918F917F916F915F914F913F912F917E
:1012B0000F900FBE0F901F90189580E49CE99093BB
:1012C0008900809388008FEF80937402E3CF1F9290
:1012D0000F920FB60F9211242F933F934F935F936A
:1012E0006F937F938F939F93AF93BF93EF93FF93EE
:1012F0008091B900887F803609F44AC0F0F58832C1
:1013000009F4A7C018F5803109F49BC0B8F488230C
:1013100009F4F9C0883009F494C0FF91EF91BF91AE
:10132000AF919F918F917F916F915F914F913F917D
:101330002F910F900FBE0F901F901895883109F4D0
:1013400088C0803251F78093B60214C0803409F40B
:101350009DC040F48033B9F38833F9F68093B60228
:1013600085ECB0C0803509F485C0883509F496C095
:10137000883499F60E94D107D0CF883909F48CC0FF
:1013800038F5883729F050F4883611F0803729F67F
:1013900083E08093B8021092730257C0883809F432
:1013A0007BC0803919F0803809F0B7CF8091730283
:1013B000803208F071C0E091730281E08E0F80935B
:1013C00073028091BB00F0E0ED5AFD4F80833DC079
:1013D000803B39F0E0F4803A09F479C0883A09F0AA
:1013E0009CCF84E08093B802109252021092510276
:1013F000E0917702F0917802099580915102811174
:101400000FC081E0809351021092310209C0803CEC
:1014100009F4A6CF883C09F4A3CF883B09F07DCF1F
:10142000E091520281E08E0F80935202F0E0EF5C77
:10143000FD4F80818093BB009091520280915102B8
:1014400029C0809193028093BB0085EC8093BC00FF
:1014500064CF9091B5028091B402981758F5E0914D
:10146000B50281E08E0F8093B502F0E0EC56FD4F9F
:101470008081E9CFE091B50281E08E0F8093B502C3
:101480008091BB00F0E0EC56FD4F80839091B50257
:101490008091B4029817C8F285E8D8CFE091B502E0
:1014A00081E08E0F8093B5028091BB00F0E0EC5696
:1014B000FD4F80838091B70281115CCF81E08093E2
:1014C000920284EA8093BC001092B80226CF85EC89
:1014D0008093BC001092B80280917302803230F485
:1014E000E0917302F0E0ED5AFD4F108260917302BB
:1014F00070E0E0917502F091760283E592E0099543
:10150000109273020ACF1092B60234CF1092E50205
:101510001092E40288EE93E0A0E0B0E08093E6024F
:101520009093E702A093E802B093E9022DE131E045
:101530003093E3022093E20225EC30E03093EF0297
:101540002093EE0224EC30E03093F1022093F0027D
:1015500020EC30E03093F3022093F20221EC30E0F3
:101560003093F5022093F40222EC30E03093F7023E
:101570002093F60226EC30E03093F9022093F80233
:101580001092FB021092FC021092FD021092FE02D9
:1015900010928203109281038093830390938403BB
:1015A000A0938503B09386038FE291E0909380032C
:1015B00080937F038091AF038C3008F0AAC091E044
:1015C000980F9093AF038093480490E0FC01EE0FD6
:1015D000FF1FE80FF91FE557FC4F88EB9BE0928354
:1015E00081838091AF038C3008F097C091E0980F11
:1015F0009093AF038093450490E0FC01EE0FFF1F32
:10160000E80FF91FE557FC4F88EB9BE0928381833D
:1016100063E571E08FE394E00E94C00768E871E041
:1016200089E394E00E94C00710922F0410922E04C8
:101630004BE451E050932D0440932C041092350458
:101640002FE32093300490E19093360482E080935E
:1016500037041092380410922204109221045093FF
:10166000200440931F041092280420932304909395
:10167000290480932A0410922B041092B203109232
:10168000B6031092B5031092B70381E491E09093F2
:10169000B1038093B003ECECF3E010821482138268
:1016A0001582369684E0E830F807B9F783E091E0D8
:1016B000909313048093120480E091E090931504BA
:1016C0008093140484E08093160483E080931704CD
:1016D00087E091E090931104809310048AE090E0F9
:1016E000909319048093180484EF91E090931B0465
:1016F00080931A0410921E0410921D0410920C0480
:1017000010920D0410920E0410920F0410921C04FB
:1017100008958FEF8093480464CF8FEF8093450442
:1017200077CFCF93DF93CDB7DEB7A7970FB6F894F7
:10173000DEBF0FBECDBF789484B5826084BD84B512
:10174000816084BD85B5826085BD85B5816085BDBC
:1017500080916E00816080936E0010928100809174
:1017600081008260809381008091810081608093FC
:101770008100809180008160809380008091B10021
:1017800084608093B1008091B00081608093B0004C
:1017900080917A00846080937A0080917A008260E0
:1017A00080937A0080917A00816080937A008091A2
:1017B0007A00806880937A001092C100E091F20272
:1017C000F091F30282E08083E091EE02F091EF026B
:1017D0001082E091F002F091F1028FEC8083109280
:1017E000FA02E091F602F091F70286E08083E09140
:1017F000F402F091F502808180618083E091F4022F
:10180000F091F502808188608083E091F402F0918C
:10181000F502808180688083E091F402F091F50206
:1018200080818F7D808310927A02109279021092CB
:10183000BF021092E1020E94770486E392E0909347
:1018400078028093770287E392E090937602809308
:10185000750260E08EE00E94300160E08FE00E943F
:10186000300160E080E10E94300160E081E10E948F
:10187000300161E08CE00E94300169E070E085E4B5
:1018800094E00E94F4036AE070E088E494E00E942F
:10189000F40370E060E088E494E00E94780370E074
:1018A00060E085E494E00E94780380E00E943906BD
:1018B0008CE294E00E94B70618E01093380460E0D0
:1018C0008CE294E00E9423068CE294E00E9483065E
:1018D0008CE294E00E947F0668E571E08CE294E07F
:1018E0000E94320781E00E9439068FE194E00E9455
:1018F000B70610932B0460E08FE194E00E9423066A
:101900008FE194E00E9483068FE194E00E947F06BD
:1019100067E671E08FE194E00E9432073CEE232EEF
:1019200033E0332E0E94C3012B013C0180918502DC
:1019300090918602A0918702B091880248165906BC
:101940006A067B0609F437C14092850250928602EE
:10195000609287027092880281E080931C040E944A
:10196000C30100910C0410910D0420910E043091DC
:101970000F04AB01BC01401B510B620B730B809138
:10198000180490911904B0E0A0E084179507A60709
:10199000B70708F0AEC110E080911604181760F484
:1019A000E0911204F0911304E10FF11D62E08081D7
:1019B0000E9430011F5FF0CF912C80911704981680
:1019C00008F063C0E92CF12CE0911404F0911504A7
:1019D000EE0DFF1D61E080810E943001E091140452
:1019E000F0911504EE0DFF1D60E080810E94020160
:1019F00081E090E0A0E0B0E0092C04C0880F991FBE
:101A0000AA1FBB1F0A94D2F75C016C01C094D0944A
:101A1000812C80911604881608F5082D10E0E091BD
:101A20001204F0911304E00FF11F80810E94D9008D
:101A30000C5F1F4F000F111FF801E055FC4F892B61
:101A400041F4808191818A299B29918380838394A9
:101A5000E0CF808191818C219D21F7CFE09114040A
:101A6000F0911504EE0DFF1D61E080810E940201DE
:101A70008091140490911504E80EF91E60E0F701BE
:101A800080810E943001939498CF90EBE92E93E0EF
:101A9000F92E8701F801878D90A1892B31F4148EDE
:101AA0002FEF3FEF368F258F11A20A5F1F4F2016B1
:101AB000310681F7D12C80911604D81608F053C056
:101AC000C12CAD2CB12CAA0CBB1CA50148545C4FF9
:101AD0005A0120911704C21608F043C0F501608135
:101AE00071810C2C02C0769567950A94E2F7D29E1C
:101AF000900111242C0D311DE0EBF3E080E0458DC9
:101B0000568D2417350709F45EC28F5F36968A30EA
:101B1000B1F760FF24C0E0EBF3E090E080E0448D9B
:101B2000411118C0E0911004F0911104E20FF31F6D
:101B3000408156E0589FF001599FF00D1124E05567
:101B4000FC4F448F368F258F10A2178E61E00E94C4
:101B5000CF0105C0019636968A30910501F7C394EE
:101B6000B8CFD394A8CFD12CF70181A18111D82E61
:101B7000F6E0EF0EF11C0E151F05B1F70E94C30130
:101B800060930C0470930D0480930E0490930F04E3
:101B9000DD2009F4AEC08091D103882309F4A9C0E7
:101BA0008091CF039091D003019709F0A2C01091CA
:101BB000CC031111A1C08091810290918202A09169
:101BC0008302B0918402A3019201281B390B4A0BB6
:101BD0005B0BDA01C9018C329140A105B10590F18E
:101BE000409281025092820260928302709284023B
:101BF0008EE00E94D9008C0180917B0290917C0242
:101C000008171907F9F080E00E9439068CE294E089
:101C10000E9483068CE294E00E947F060130110549
:101C200009F005C164EB70E085E494E00E9478035C
:101C300067EB71E08CE294E00E94320710937C0223
:101C400000937B0280917D0290917E02A0917F02A1
:101C5000B0918002A3019201281B390B4A0B5B0B48
:101C6000DA01C901843F9140A105B10500F140921C
:101C70007D0250927E0260927F02709280028FE01D
:101C80000E94D9007C0180E10E94D9008C0181E191
:101C90000E94D900EA94EF2831F00130110519F0C3
:101CA00060E0019709F461E08CE00E94020182EE9D
:101CB00092E00E94C802181619060CF021C168E8CB
:101CC00071E0CE0182960E94C0070E94880297FDB3
:101CD000B7C08A30910509F4B3C089831A8241E004
:101CE00050E0BE016F5F7F4FCE0182960E94690770
:101CF000ECCF10921C045FCF68E771E082EE92E0B7
:101D00000E943207612F82EE92E00E940A0366E889
:101D100071E082EE92E00E943207133231F5209199
:101D20003D0430913E04809143049091440428176F
:101D30003907C1F48091390490913A0460913F04CD
:101D400070914004009709F440C16115710539F4A0
:101D5000232B09F448C1FC01808190E041C10E941D
:101D600003133EC168E971E052C11A32B9F450E080
:101D700040E068E871E089E394E00E94950764EA36
:101D800071E0CE0101960E94C007CE0101960E942B
:101D90009906CE0101960E942A070DCF19831A8257
:101DA00041E050E0BE016F5F7F4F89E394E00E9405
:101DB000690760EB71E0CE0182960E94C0074091F6
:101DC0003D0450913E046091390470913A04CE0173
:101DD00082960E94690781110CC08AA19BA100977D
:101DE00011F00E94B4111BA21AA21FA21EA21DA2D2
:101DF0001CA21A8219821C821B821E821D826AA169
:101E00007BA16115710531F04EA15FA1CE01019654
:101E10000E949507CE0101960E949906CE01019677
:101E20000E942A07CE0182960E942A07C4CE70E043
:101E300060E085E494E00E94780367EC71E0FACEFC
:101E4000CAA0DBA0C114D10439F00EA11FA17601F4
:101E50000115110509F062C08EA19FA1892B09F41B
:101E60004BC08AA19BA1C12CD12C7601009719F0FF
:101E70000E9424106B01F5EBCF16D10408F09CC032
:101E8000B60188E494E00E94780361ED71E082EE8F
:101E900092E00E9432070D2C000CEE08FF08F7FEBE
:101EA00073C06DE282EE92E00E940A03222733277C
:101EB000A9012C193D094E095F0919A28E010F5D78
:101EC0001F4FCA01B9012AE030E040E050E00E9413
:101ED000D510605DF80162938F0121153105410530
:101EE000510579F7B801012B09F068C066E871E087
:101EF00082EE92E00E943207CE0182960E942A076B
:101F000080E090E0892B09F40DCD0E94D402882353
:101F100009F404CD0E94000001CD750157015FEF67
:101F2000A51AB50AF7018081082E000C990B0E94B2
:101F30006010892B91F7015011090C0D1D1DF8013E
:101F40008081082E000C990B0E946010892B31F0C3
:101F50000E151F0518F001501109F1CF0F5F1F4F2B
:101F6000A8014E195F095FA34EA3CE14DF0420F42D
:101F7000B701C6010E94FA12EAA1FBA18EA19FA19E
:101F8000E80FF91F108268CFA701960119A28E01F0
:101F90000F5D1F4FCA01B9012AE030E040E050E078
:101FA0000E94D510605DF80162938F012115310503
:101FB0004105510579F796CF65EE71E082EE92E02A
:101FC0000E94320793CF6170C2CD6115710559F03F
:101FD000232B49F0FB01808190E091958195910937
:101FE000892B09F0BFCE64EB70E088E494E00E9496
:101FF00078036CED75E080E090E00E94910170E064
:1020000060E088E494E00E94780369E871E0CE0122
:1020100001960E94C007CE0101960E949906CE014A
:1020200001960E942A0750E040E068E871E089E3E9
:1020300094E00E949507BFCD89E394E00E942A07AF
:102040008FE394E00C942A071F93FC0199278827BB
:10205000BC01E89411911032E9F3193010F01E30F0
:10206000C8F31B3251F01D3249F4689406C00E9437
:102070004B10610F711D811D911D119110531A306C
:10208000B0F33EF490958095709561957F4F8F4F9A
:102090009F4F1F910895592F482F372F262F660FD6
:1020A000771F881F991F660F771F881F991F620F60
:1020B000731F841F951F660F771F881F991F089530
:1020C00091110C946910803219F089508550C8F72D
:1020D0000895992788270895052E97FB1EF40094EC
:1020E0000E94831057FD07D00E94D51007FC03D033
:1020F0004EF40C94831050954095309521953F4FA8
:102100004F4F5F4F089590958095709561957F4FE3
:102110008F4F9F4F08950E94F710A59F900DB49F79
:10212000900DA49F800D911D11240895B7FF0C946C
:102130008B100E948B10821B930B08952F923F925D
:102140004F925F926F927F928F929F92AF92BF92C7
:10215000CF92DF92EF92FF920F931F93CF93DF9373
:10216000CDB7DEB7CA1BDB0B0FB6F894DEBF0FBED0
:10217000CDBF09942A88398848885F846E847D841D
:102180008C849B84AA84B984C884DF80EE80FD801F
:102190000C811B81AA81B981CE0FD11D0FB6F89495
:1021A000DEBF0FBECDBFED010895A1E21A2EAA1B1E
:1021B000BB1BFD010DC0AA1FBB1FEE1FFF1FA217F7
:1021C000B307E407F50720F0A21BB30BE40BF50BF4
:1021D000661F771F881F991F1A9469F7609570957D
:1021E000809590959B01AC01BD01CF010895A29F00
:1021F000B001B39FC001A39F700D811D1124911DDB
:10220000B29F700D811D1124911D0895991B79E0D5
:1022100004C0991F961708F0961B881F7A95C9F776
:1022200080950895EE0FFF1F0590F491E02D09941D
:102230000F931F93CF93DF938230910510F482E0C8
:1022400090E0E0914D04F0914E0430E020E0B0E0E9
:10225000A0E0309799F42115310509F44AC0281BF4
:10226000390B24303105D8F58A819B8161157105C0
:1022700089F1FB0193838283FE0111C0408151816A
:102280000281138148175907E0F04817590799F45C
:10229000109761F012960C93129713961C93329636
:1022A000CF01DF91CF911F910F91089500934D04BD
:1022B00010934E04F4CF2115310551F04217530706
:1022C00038F0A901DB019A01BD01DF01F801C1CF9E
:1022D000EF01F9CF90934E0480934D04CDCFFE01D2
:1022E000E20FF31F819391932250310939832883A0
:1022F000D7CF20914B0430914C04232B41F42091F3
:1023000015013091160130934C0420934B04209119
:102310001301309114012115310541F42DB73EB759
:102320004091170150911801241B350BE0914B048B
:10233000F0914C04E217F307A0F42E1B3F0B281773
:10234000390778F0AC014E5F5F4F2417350748F02E
:102350004E0F5F1F50934C0440934B048193919315
:102360009FCFF0E0E0E09CCFCF93DF930097E9F0C0
:10237000FC01329713821282A0914D04B0914E0459
:10238000ED0130E020E01097A1F420813181820F2F
:10239000931F20914B0430914C042817390709F002
:1023A00061C0F0934C04E0934B04DF91CF9108950A
:1023B000EA01CE17DF07E8F54A815B819E014115EE
:1023C0005105B1F7E901FB83EA8349915991C40FA3
:1023D000D51FEC17FD0761F4808191810296840F6F
:1023E000951FE90199838883828193819B838A83E6
:1023F000F0E0E0E012968D919C9113970097B9F56B
:102400002D913C911197CD010296820F931F20913F
:102410004B0430914C042817390739F6309751F5A1
:1024200010924E0410924D04B0934C04A0934B04B0
:10243000BCCFD383C28340815181840F951FC817BD
:10244000D90761F44E5F5F4F88819981480F591F0A
:10245000518340838A819B81938382832115310537
:1024600009F0B0CFF0934E04E0934D049ECFFD01F0
:10247000DC01C0CF13821282D7CFB0E0A0E0E3E44A
:10248000F2E10C94A0108C01009751F4CB010E9452
:1024900018118C01C801CDB7DEB7E0E10C94BC1077
:1024A000FC01E60FF71F9C0122503109E217F307E8
:1024B00008F49DC0D901CD91DC911197C617D707BB
:1024C00098F0C530D10530F3CE01049786179707F1
:1024D00008F3C61BD70B2297C193D1936D937C93BE
:1024E000CF010E94B411D6CF5B01AC1ABD0A4C01DA
:1024F0008C0E9D1EA0914D04B0914E04512C412C88
:10250000F12CE12C109731F580914B0490914C0403
:102510008815990509F05CC04616570608F058C0A2
:102520008091130190911401009741F48DB79EB7EB
:102530004091170150911801841B950BE817F9077A
:1025400008F055C0F0934C04E0934B04F9017183FB
:102550006083A0CF8D919C91119712966C901297E9
:1025600013967C901397A815B90559F56C0142E0B4
:10257000C40ED11CCA14DB0420F1AC014A195B095A
:10258000DA011296159780F062827382518340833C
:10259000D9016D937C93E114F10471F0D701139686
:1025A000FC93EE93129776CF22968C0F9D1FF90124
:1025B00091838083F301EFCFF0934E04E0934D04B9
:1025C00069CF4816590608F42C017D01D3019ACF32
:1025D000CB010E9418117C01009749F0AE01B801AF
:1025E0000E94FA12C8010E94B411870153CF10E073
:1025F00000E050CFFB01DC0102C001900D92415080
:102600005040D8F70895FB01DC018D9101908019AD
:102610000110D9F3990B0895FB01DC0101900D9293
:102620000020E1F7089510E0C2E6D0E004C0FE010A
:102630000E9412112196C336D107C9F7F894FFCF33
:10264000060708020304053132333435363738398A
:102650002A302300004F048000000000000A0338E5
:102660000265025703C8027402BA0200000000F4B7
:1026700005C70536069D05C005AD059E0500000091
:10268000002B022F02330200000000B10638023690
:102690000677033132333400446F6F722069732040
:1026A000636C6F736564004761726167652069736D
:1026B00020636C6F736564004B657920507265739D
:1026C0007365643A20000D0A0041636365737320EB
:1026D0004772616E7465640057726F6E6720436F56
:1026E00064652100456E74657220436F64653A002D
:1026F000436F64653A20004D6F74696F6E204465C6
:10270000746563746564004E6F204D6F74696F6EFD
:1027100000446F6F7220616E676C65207365742072
:10272000746F3A2000496E76616C696420616E674F
:102730006C652E20456E7465722076616C7565201F
:102740006265747765656E20302D3138302E00005B
:00000001FF
